:10034500E4FDFCC3ED9FEC9E5015E4FBFA0BBB00EE
:0F035500010ABA01F8BB4DF50DBD00010C80E4A3
:010364002276
:040365008E138F1450
:10036900900000C3E5829514E5839513500A7FE850
:080379007E03120345A380EB93
:010381002259
:10011900E4F50FF510F51175B00F7F01FE120345D7
:10012900AFB0EF24F9601A24FC601124FE600814B2
:100139007014E4F50F8012750F01800D750F0280A0
:1001490008750F0380037F002275B0F07F017E00E0
:10015900120345AFB0EF2490601B24C0601224E065
:10016900600924F07014E4F5108012751001800DF7
:10017900751002800875100380037F0022AFB0EF6D
:1001890064E06015AFB0EF64D0600EAFB0EF64B05B
:100199006007AFB0EF6470700E7F017E00120345F7
:1001A9000511E511F470D6E50F25E025E0251004C9
:0101B900FF46
:0101BA002222
:10023B00120119EFB41100506C90024BF82828737F
:10024B0002027E02028102028402028702028A02F9
:10025B00028D02029002029302029602029902029E
:10026B009C02029F0202A20202A50202A80202AB9A
:10027B000202AE7F00227F31227F32227F33227F28
:10028B002B227F34227F35227F36227F2D227F3710
:10029B00227F38227F39227F43227F2E227F3022FA
:0502AB007F3D227F42AF
:0102B000222B
:10000300E4F508F509F50AF50BF50CF50D750E2069
:1000130012039F12023B8F08E50860F7C394304038
:1000230007E508D39439400FE508642B6009E50818
:10003300642D60030200C1E50E6420704DE508C322
:1000430094304022E508D39439501BAE0AAF0B7CA1
:10005300007D0A1201D4EF2508FFEC3ECF24D0F532
:100063000BEF34FFF50AE508642B6005E508B42DB2
:100073000385080EE50B450A703912039F7B30E4B4
:10008300FDFF1203247509018034E508C394304051
:1000930022E508D39439501BAE0CAF0D7C007D0ACA
:1000A3001201D4EF2508FFEC3ECF24D0F50DEF3439
:1000B300FFF50CAD090509AB08E4FF120324E508BD
:1000C300643D70357B3DFD7F01120324E50EB42BA7
:1000D30011E50B250DFBE50A350CFA7D017F0112B5
:1000E30002B1E50EB42D12C3E50B950DFBE50A95A0
:1000F3000CFA7D017F011202B1E50864436003023B
:10010300001612039FE4F509F50AF50BF50CF50D3E
:06011300750E200200162B
:10038200E4FFFEE4FDFC0DBD00010CED64154C70B4
:0C039200F50FBF00010EEF640B4E70E78A
:01039E00223C
:1003B3008F80C295C296C297120382D2970203829C
:1003C3008F80D295C296C297120382D2970203827C
:10039F007F381203B37F011203B37F061203B37FBB
:0403AF000C0203B386
:02032400AE0722
:10032600EEF58275830070027A80E582640145836A
:0F03360070027AC0ED2AFF1203B3AF030203C3B4
:1002F200EFF5827583007003751780E5826401450E
:100302008370037517C0ED2517F517FF1203B3129B
:1003120001BBFF600C1203C3740129F9E43AFA80AD
:01032200EEEC
:0103230022B7
:1002B1008F0F8D108A118B12AE11AF127C007D0A47
:1002C1001201E67C007D0A1201E6ED2430FBAD103F
:1002D100AF0F120324E51004FDC005AE11AF127C6F
:1002E100007D0A1201E6ED2430FBD005AF0F0203B9
:0102F10024E8
:030000000203D325
:0C03D300787FE4F6D8FD75811702000366
:1001BB00BB010689828A83E0225002E722BBFE0242
:0901CB00E32289828A83E4932275
:1001D400EF8DF0A4A8F0CF8CF0A428CE8DF0A42E3F
:0201E400FE22F9
:1001E600BC000BBE0029EF8DF084FFADF022E4CCFD
:1001F600F875F008EF2FFFEE33FEEC33FCEE9DECC6
:10020600984005FCEE9DFE0FD5F0E9E4CEFD22ED0B
:10021600F8F5F0EE8420D21CFEADF075F008EF2F55
:10022600FFED33FD4007985006D5F0F222C398FD46
:050236000FD5F0EA22E3
:00000001FF
