:0D0109000809FEFDFBF7EFDFBF7F010800D6
:1000D500E4FDFCEFFBC3ED9BEC94005015E4FBFA4B
:1000E5000BBB00010ABA01F8BB4DF50DBD00010CB3
:0200F50080E1A8
:0100F70022E6
:03011F00B2802289
:1000F80074092508F8E6F5800508E5085407F508A9
:0101080022D4
:04011700E4F5802269
:04011B007580FF22CA
:10008F0020B00E7F0A1200D520B00630B0FD12014D
:10009F001F20B10E7F0A1200D520B10630B1FD121C
:1000AF0000F820B20E7F0A1200D520B20630B2FD42
:1000BF0012011720B3CA7F0A1200D520B3C230B382
:0600CF00FD12011B80BAC6
:03000000020003F8
:0C000300787FE4F6D8FD75811002004AF9
:10000F0002008FE493A3F8E493A34003F68001F278
:10001F0008DFF48029E493A3F85407240CC8C333F2
:10002F00C4540F4420C8834004F456800146F6DFC1
:10003F00E4800B0102040810204080900109E47E47
:10004F00019360BCA3FF543F30E509541FFEE493B6
:10005F00A360010ECF54C025E060A840B8E493A37D
:10006F00FAE493A3F8E493A3C8C582C8CAC583CAA8
:10007F00F0A3C8C582C8CAC583CADFE9DEE780BE60
:0101160000E8
:00000001FF
