:0B000600D288C289D2A8D2AFC2B822B3
:0B033000D28AC28BD2AAD2AFD2BA226E
:030003000200A256
:1000A200C0E0C0F0C083C082C0D075D000C000C024
:1000B20001C002C003C004C005C006C007E4FF12AD
:1000C200025D7F0112025D7F0212025D7F03120256
:1000D2005D7F041202207F051202207F207E031220
:1000E20002E37F0412025D7F0512025DE5186401DE
:1000F2007007FF120220751800D007D006D005D075
:1001020004D003D002D001D000D0D0D082D083D08E
:04011200F0D0E03217
:03001300020116D1
:10011600C0E0C0F0C083C082C0D075D000C000C0AF
:1001260001C002C003C004C005C006C0077F061296
:1001360002207F071202207F207E031202E37F0641
:1001460012025D7F0712025DE518640170087F01E7
:10015600120220751800D007D006D005D004D003AF
:10016600D002D001D000D0D0D082D083D0F0D0E061
:010176003256
:1001D000E4F514F515AF151202207FC87E00120257
:1001E000E30515E51570020514C39408E514648051
:1001F000948040E17FF47E011202E3E4F514F515EA
:10020000AF1512025D7FC87E001202E30515E515E9
:0F02100070020514C39408E5146480948040E1E3
:01021F0022BC
:100320001200061203307518017F0312022080F6B6
:1002E300E4FDFCC3ED9FEC9E5015E4FBFA0BBB0051
:0F02F300010ABA01F8BB4DF50DBD00010C80E406
:0103020022D8
:040303008E108F11B8
:10030700900000C3E5829511E5839510500A7FE8B8
:080317007E031202E3A380EB58
:01031F0022BB
:0A033B000808FEFDFBF7EFDFBF7FAF
:10022000EFB40800503690022DF8282873020245DA
:1002300002024802024B02024E0202510202540222
:10024000025702025AC28022C28122C28222C28383
:0D02500022C28422C28522C28622C28722D9
:10025D00EFB40800503690026AF828287302028223
:10026D0002028502028802028B02028E02029102B4
:10027D000294020297D28022D28122D28222D2838C
:0D028D0022D28422D28522D28622D287225C
:10017700C2807F647E001202E3D280C2817F647EE8
:10018700001202E3D281C2827F647E001202E3D2B0
:1001970082C2837F647E001202E3D283C2847F64BB
:1001A7007E001202E3D284C2857F647E001202E3DE
:1001B700D285C2867F647E001202E3D286C2877F21
:0901C700647E001202E3D28722DB
:1002C100E4F519C3E51994087480948050137408F7
:1002D1002519F8E6F5807F647E001202E305198096
:0102E100E23A
:0102E20022F9
:10029A007516FEE4F517C3E5179408748094805028
:1002AA0015851680E51625E004F5167F647E001292
:0602BA0002E3051780E0DD
:0102C000221B
:03000000020016E5
:0C001600787FE4F6D8FD75811902005DCA
:10002200020320E493A3F8E493A34003F68001F2D1
:1000320008DFF48029E493A3F85407240CC8C333DF
:10004200C4540F4420C8834004F456800146F6DFAE
:10005200E4800B010204081020408090033BE47E00
:10006200019360BCA3FF543F30E509541FFEE493A3
:10007200A360010ECF54C025E060A840B8E493A36A
:10008200FAE493A3F8E493A3C8C582C8CAC583CA95
:10009200F0A3C8C582C8CAC583CADFE9DEE780BE4D
:0103450000B7
:00000001FF
