:10034E00E4FDFCC3ED9FEC9E5015E4FBFA0BBB00E5
:0F035E00010ABA01F8BB4DF50DBD00010C80E49A
:01036D00226D
:04036E008E1B8F1C37
:10037200900000C3E582951CE583951B500A7FE837
:080382007E0312034EA380EB81
:01038A002250
:0B000E00D288C289D2A8D2AFD2B8229B
:030003000201E215
:1001E200C0E0C0F0C083C082C0D075D000C000C0E3
:1001F20001C002C003C004C005C006C007E5120466
:100202005403F5127510007511007F0712022CD0ED
:1002120007D006D005D004D003D002D001D000D040
:0A022200D0D082D083D0F0D0E032BB
:0A032C000813FEFDFBF7EFDFBF7FB3
:10022C00EFB408005036900239F8282873020251B6
:10023C0002025402025702025A02025D02026002DA
:10024C000263020266B28022B28122B28222B2839F
:0D025C0022B28422B28522B28622B287220D
:10026900EFB408005036900276F828287302028EFF
:1002790002029102029402029702029A02029D026C
:1002890002A00202A3C28022C28122C28222C283A8
:0D02990022C28422C28522C28622C2872290
:1002A600EFB4080050369002B3F82828730202CB48
:1002B6000202CE0202D10202D40202D70202DA02FE
:1002C60002DD0202E0D28022D28122D28222D283B1
:0D02D60022D28422D28522D28622D2872213
:10018900C2807F647E0012034ED280C2817F647E6A
:100199000012034ED281C2827F647E0012034ED2C6
:1001A90082C2837F647E0012034ED283C2847F643D
:1001B9007E0012034ED284C2857F647E0012034EF4
:1001C900D285C2867F647E0012034ED286C2877FA3
:0901D900647E0012034ED287225D
:10030A00E4F521C3E5219408748094805013741392
:10031A002521F8E6F5807F647E0012034E052180D0
:01032A00E2F0
:01032B0022AF
:1002E300751FFEE4F520C3E52094087480948050C4
:1002F30015851F80E51F25E004F51F7F647E00122E
:06030300034E052080E01E
:0103090022D1
:0B03B90012038B1203A212000E80FE44
:10033600020E000002100000011200040800143230
:0703460050010C00010D0144
:10038B005389F0438902D28C758A38758C38C28DAB
:07039B00D2A9D2AFC2B922C2
:1003A20053890F438920D28E758B38758D38C28F51
:0703B200D2ABD2AFC2BB22A7
:03000B000200AA46
:1000AA00C0E0C0F0C083C082C0D075D000C000C01C
:1000BA0001C002C003C004C005C006C007050FE5A1
:1000CA000F7002050E6464450E702BF50EF50FFFD6
:1000DA001202A6AF0D7E00EF64017002050CEF4E0E
:1000EA007002150CAF0C7E00EF64647002F50DEF20
:1000FA004E7003750D01E50CB50F08E4B50E04FF4B
:10010A00120269D007D006D005D004D003D002D09D
:0E011A0001D000D0D0D082D083D0F0D0E0321F
:03001B00020128B7
:10012800C0E0C0F0C083C082C0D075D000C000C09D
:1001380001C002C003C004C005C006C0070511E520
:100148001170020510646445107009F510F5117FEF
:100158000112026974082512F8E6B51109E4B51010
:10016800057F011202A6D007D006D005D004D0031F
:10017800D002D001D000D0D0D082D083D0F0D0E04F
:010188003244
:0300000002001EDD
:0C001E00787FE4F6D8FD758121020065B2
:10002A000203B9E493A3F8E493A34003F68001F230
:10003A0008DFF48029E493A3F85407240CC8C333D7
:10004A00C4540F4420C8834004F456800146F6DFA6
:10005A00E4800B010204081020408090032CE47E07
:10006A00019360BCA3FF543F30E509541FFEE4939B
:10007A00A360010ECF54C025E060A840B8E493A362
:10008A00FAE493A3F8E493A3C8C582C8CAC583CA8D
:10009A00F0A3C8C582C8CAC583CADFE9DEE780BE45
:01034D0000AF
:00000001FF
