:0C00DA000A08C0F9A4B0999282F8809046
:1000B700E4FDFCEFFBC3ED9BEC94005015E4FBFA69
:1000C7000BBB00010ABA01F8BB4DF50DBD00010CD1
:0200D70080E1C6
:0100D9002204
:10008F00E4F512C3E512940A7480948050F2740858
:10009F002512F8E6F5907FC81200B70512E5127524
:0800AF00F00A8485F01280DBE9
:03000000020003F8
:0C000300787FE4F6D8FD75811202004AF7
:10000F0002008FE493A3F8E493A34003F68001F278
:10001F0008DFF48029E493A3F85407240CC8C333F2
:10002F00C4540F4420C8834004F456800146F6DFC1
:10003F00E4800B01020408102040809000DAE47E77
:10004F00019360BCA3FF543F30E509541FFEE493B6
:10005F00A360010ECF54C025E060A840B8E493A37D
:10006F00FAE493A3F8E493A3C8C582C8CAC583CAA8
:10007F00F0A3C8C582C8CAC583CADFE9DEE780BE60
:0100E6000019
:00000001FF
