:1000F1000A08C0F9A4B0999282F880900A123F06CA
:080101005B4F666D7D077F6F07
:07008F0029F8E6F5907FC897
:10009600E4FDFCEFFBC3ED9BEC94005015E4FBFA8A
:1000A6000BBB00010ABA01F8BB4DF50DBD00010CF2
:0200B60080E1E7
:0100B8002225
:1000B900E4F9E9C3940A74809480500F740812001B
:0B00C9008F09E975F00A84A9F080E7B8
:0100D4002209
:1000D500E4F9E9C3940A74809480500F74121200F5
:0B00E5008F09E975F00A84A9F080E79C
:0100F00022ED
:05010A001200D580FB8E
:03000000020003F8
:0C000300787FE4F6D8FD75811B02004AEE
:10000F0002010AE493A3F8E493A34003F68001F2FC
:10001F0008DFF48029E493A3F85407240CC8C333F2
:10002F00C4540F4420C8834004F456800146F6DFC1
:10003F00E4800B01020408102040809000F1E47E60
:10004F00019360BCA3FF543F30E509541FFEE493B6
:10005F00A360010ECF54C025E060A840B8E493A37D
:10006F00FAE493A3F8E493A3C8C582C8CAC583CAA8
:10007F00F0A3C8C582C8CAC583CADFE9DEE780BE60
:0101090000F5
:00000001FF
