:1004D000E4FDFCC3ED9FEC9E5015E4FBFA0BBB0062
:0F04E000010ABA01F8BB4DF50DBD00010C80E417
:0104EF0022EA
:0404F0008E118F12C8
:1004F400900000C3E5829512E5839511500A7FE8C8
:080504007E031204D0A380EB7A
:01050C0022CC
:0605B4000000000000221F
:0C059000D290D2911205B4C2910205B4C1
:0C059C00C291D2901205B4D2910205B4B5
:10052A00C2901205B4200004C2918002D291120531
:09053A00B4D2901205B4C2902263
:10054300C2901205B4D2900000209104C200800230
:08055300D200C2900000A200DA
:01055B00227D
:10046100E4FEEEC39408748094805018C290120583
:10047100B4EF3392911205B4EF25E0FFD29012054B
:06048100B40E80DEC29003
:010487002252
:10048800E4FFFEEEC39408748094805017C2901263
:1004980005B4D290EF25E0FFA291E433420712059C
:0604A800B40E80DFC290DB
:0104AE00222B
:0505BA0074657374007C
:10031A00E4F50CF50BF50AF50912055C7BFF7A0585
:10032A0079BAE4FDFF12042F1205907F901204613E
:10033A0012054350030203E1E4FF1204611205436C
:10034A0050030203E11205907F91120461120543E2
:10035A0050030203E11204888F08D20012052AAC66
:10036A0008E41201B3E4FBFA7980784312010CE441
:10037A00FBFA79A078401200038F0C8E0B8D0A8C41
:10038A0009E4FBFA79C878421200038F0C8E0B8DB0
:10039A000A8C091201E77C007D641202D6AA06AB18
:1003AA00077D057F011203EE7B2E7D077F01120474
:1003BA00AFAF0CAE0BAD0AAC091201E77C007D644D
:1003CA001202D6AA04AB057D087F011203EE7B76E2
:1003DA007D0A7F011204AF12059C7F647E0012041D
:0403EA00D002033208
:10050D00E4FFFEE4FDFC0DBD00010CED64154C7027
:0C051D00F50FBF00010EEF640B4E70E7FD
:0105290022AF
:100570008F80C295C296C29712050DD29702050DC3
:100580008F80D295C296C29712050DD29702050DA3
:10055C007F381205707F011205707F061205707FBF
:04056C000C02057008
:0204AF00AE0796
:1004B100EEF58275830070027A80E58264014583DE
:0F04C10070027AC0ED2AFF120570AF03020580AA
:10042F00EFF5827583007003750D80E582640145D9
:10043F00837003750DC0ED250DF50DFF12057012BC
:10044F000268FF600C120580740129F9E43AFA8002
:01045F00EEAE
:010460002279
:1003EE008F0D8D0E8A0F8B10AE0FAF107C007D0A15
:1003FE001202817C007D0A120281ED2430FBAD0ECB
:10040E00AF0D1204AFE50E04FDC005AE0FAF107CAC
:10041E00007D0A120281ED2430FBD005AF0D0204DF
:01042E00AF1E
:10000300EC4D6011E8497017ED33EC3304600DE4F7
:10001300FCFFFEFD22E933E8330470F802025312B9
:10002300021E58046009E4CC2481500628500902BA
:10003300025D28400302025AC0E0EB4A7044B980D3
:1000430006D0E0FB020249EF4E701CBD8008EBFFB7
:10005300EAFEE9FD80EBE98DF0A4FEE5F00200EC99
:10006300E9CDF9EAFEEBFFEF89F0A4FCE5F0CE89D8
:10007300F0A42EFFE435F0CD89F0A42DFEE435F095
:100083008067EF4E7005BD80D780C3EF8BF0A4ACC3
:10009300F0EE8BF0A42CFCE435F0F8EF8AF0A42CFE
:1000A300E5F038FCE433CB8DF0A42CFCE5F03BF811
:1000B300EE8AF0A42CFCE5F038F8E433CF89F0A401
:1000C3002CFCE5F038CF3400CE89F0A42FFFE5F007
:1000D3003EFEE433C98DF0A42EFEE5F039CD8AF05F
:1000E300A42FFFE5F03EFEE43DFD33D0E0FB5007D7
:1000F3000BBB000F02025DEC2CFCEF33FFEE33FE73
:06010300ED33FD020235A0
:1001090002025DEC5D046005E859047003020253C4
:1001190012021E580460F6EC4860F2EC7004FDFE11
:10012900FF22C860DB2481C85009C39860025006C9
:1001390002025A9850CAF582E9294B4A7005AB82E6
:1001490002024975F0007C1A7880C3EF9BEE9AEDA4
:1001590099400DC3EF9BFFEE9AFEED99FDE842F041
:10016900DC23ACF0D0E0FFD0E0FED0E0FDAB822094
:10017900E7101BEB60BAEC2CFCEF33FFEE33FEED1E
:1001890033FD020235E803F830E705C0F075F000E9
:10019900EF2FFFEE33FEED33FD40B830E7C280AA02
:1001A90075F020800E75F010800575F0087D007ED1
:1001B900007F003392D530D50312030CEC33401085
:1001C900EF33FFEE33FEED33FDEC33FCD5F0ED22DA
:0E01D900E5F0247EA2D513CC92E7CDCEFF2216
:1001E700EDD2E7CD33EC3392D524814006E4FFFE10
:1001F700FDFC22FCE4CFCECDCC24E0501174FF806F
:10020700EDC3CC13CCCD13CDCE13CECF13CF04700B
:07021700F030D5DE02030CFC
:10021E00E9D2E7C933E833F892D5EDD2E7CD33EC26
:07022E0033FC5002B2D5229F
:10023500EC30E7100FBF000C0EBE00080DBD00042A
:100245000BEB6014A2D5EB13FCED92E7FD2274FFD6
:10025500FCFDFEFF22E480F8A2D574FF13FC7D802F
:03026500E480EF43
:030000000205A84E
:0C05A800787FE4F6D8FD75812002031A6C
:10026800BB010689828A83E0225002E722BBFE0294
:09027800E32289828A83E49322C7
:10028100BC000BBE0029EF8DF084FFADF022E4CC61
:10029100F875F008EF2FFFEE33FEEC33FCEE9DEC2A
:1002A100984005FCEE9DFE0FD5F0E9E4CEFD22ED70
:1002B100F8F5F0EE8420D21CFEADF075F008EF2FBA
:1002C100FFED33FD4007985006D5F0F222C398FDAB
:0502D1000FD5F0EA2248
:1002D600C2D5EC30E709B2D5E4C39DFDE49CFCEE43
:1002E60030E715B2D5E4C39FFFE49EFE120281C338
:1002F600E49DFDE49CFC800312028130D507C3E433
:060306009FFFE49EFE22B1
:0E030C00C3E49FFFE49EFEE49DFDE49CFC2202
:00000001FF
