:100BCD00E4FDFCC3ED9FEC9E5015E4FBFA0BBB005E
:0F0BDD00010ABA01F8BB4DF50DBD00010C80E413
:010BEC0022E6
:040BED008E488F4956
:100BF100900000C3E5829549E5839548500A7FE856
:080C01007E03120BCDA380EB72
:010C090022C8
:06000300000000000022D5
:0C0CA400D290D291120003C29102000312
:0C0CB000C291D290120003D29102000306
:100C2700C290120003200404C2918002D2911200E4
:090C370003D290120003C29022C6
:100C4000C290120003D2900000209104C2038002DF
:080C5000D203C2900000A203D0
:010C58002279
:100B5E00E4FEEEC39408748094805018C290120084
:100B6E0003EF339291120003EF25E0FFD2901200B3
:060B7E00030E80DEC290B0
:010B8400224E
:100B8500E4FFFEEEC39408748094805017C290125F
:100B95000003D290EF25E0FFA291E4334207120053
:060BA500030E80DFC29088
:010BAB002227
:050CBC00746573740073
:10049C00E4F50CF50BF50A750940751101C3E5116E
:1004AC00946474809480400302057AAF0CAE0BAD5B
:1004BC000AAC097B0A7AD779A378BC1200158F0C89
:1004CC008E0B8D0A8C09AB0CAA0BA90AA809E4FFA8
:1004DC00FE7D807C3F120011120A3EE4FBFA794843
:1004EC0078421201068F108E0F8D0E8C0D1202EABF
:1004FC00120B31E4FFFE7D807CBFAB0CAA0BA90A6A
:10050C00A809120015C004C005C006C007E4FFFE10
:10051C007D807CBFAB0CAA0BA90AA809120015D0D0
:10052C0003D002D001D000120106A804A905AA0626
:10053C00AB07E4FFFE7D807C3F120011120861E4E2
:10054C00FBFA794078401200158F108E0F8D0E8CAF
:10055C000DE4FBFA794878421201068F108E0F8D4C
:10056C000E8C0D1202EA120B3105110204A9E4F5EE
:10057C000CF50BF50AF509751101C3E511946474BA
:10058C008094804003020657AF0CAE0BAD0AAC0949
:10059C007B0A7AD779A3783C1200158F0C8E0B8DC1
:1005AC000A8C09AB0CAA0BA90AA809E4FFFE7D80F2
:1005BC007C3F120011120A3EE4FBFA794878421291
:1005CC0001068F108E0F8D0E8C0D1202EA120B315C
:1005DC00E4FFFE7D807CBFAB0CAA0BA90AA8091214
:1005EC000015C004C005C006C007E4FFFE7D807C7A
:1005FC00BFAB0CAA0BA90AA809120015D003D00294
:10060C00D001D000120106A804A905AA06AB07E484
:10061C00FFFE7D807C3F120011120861E4FBFA7929
:10062C004078401200158F108E0F8D0E8C0DE4FB50
:10063C00FA794878421201068F108E0F8D0E8C0DB0
:10064C001202EA120B3105110205867F647E00123C
:05065C000BCD02049C1F
:10078900E4F51AF519F518F517120C707BFF7A0CB8
:1007990079BCE4FDFF120AFF120CA47F90120B5ED4
:1007A900120C405003020850E4FF120B5E120C4079
:1007B9005003020850120CA47F91120B5E120C40D8
:1007C9005003020850120B858F16D204120C27AC65
:1007D90016E41202B6E4FBFA7980784312020FE4B8
:1007E900FBFA79A078401201068F1A8E198D188CA0
:1007F90017E4FBFA79C878421201068F1A8E198D0F
:10080900188C171202EA7C007D64120438AA06AB20
:10081900077D057F01120A887B2E7D077F01120B58
:10082900ACAF1AAE19AD18AC171202EA7C007D64A0
:10083900120438AA04AB057D087F01120A887B7669
:100849007D0A7F01120BAC120CB07F647E00120B83
:04085900CD0207A124
:100C0A00E4FFFEE4FDFC0DBD00010CED64154C7023
:0C0C1A00F50FBF00010EEF640B4E70E7F9
:010C260022AB
:100C84008F80C295C296C297120C0AD297020C0AA0
:100C94008F80D295C296C297120C0AD297020C0A80
:100C70007F38120C847F01120C847F06120C847F53
:040C80000C020C84D2
:020BAC00AE0792
:100BAE00EEF58275830070027A80E58264014583DA
:0F0BBE0070027AC0ED2AFF120C84AF03020C9470
:100AFF00EFF5827583007003751F80E582640145F1
:100B0F00837003751FC0ED251FF51FFF120C841294
:100B1F0003B8FF600C120C94740129F9E43AFA80BF
:010B2F00EED7
:010B300022A2
:100A88008F1B8D1C8A1D8B1EAE1DAF1E7C007D0A20
:100A98001203E37C007D0A1203E3ED2430FBAD1C56
:100AA800AF1B120BACE51C04FDC005AE1DAF1E7CD0
:100AB800007D0A1203E3ED2430FBD005AF1B020BC7
:010AC800AC81
:060AC900014A90014B916F
:0809F1008F448B458A468947BB
:1009F900C205120CA4AF4A120B5E120C404030E53E
:100A0900444440FFF544120B5E120C404021120C85
:100A1900A4AF4B120B5E120C404014120B85AB4570
:100A2900AA46A947EF1203D1D204120C27D2051204
:040A39000CB0A20556
:010A3D002296
:020B31008F1221
:100B3300C202120CA4AF4A120B5E120C4040167F85
:100B430040120B5E120C40400CAF12120B5E120CE3
:0A0B5300404002D202120CB0A202D0
:010B5D002275
:100ACF000237000002390000083C006400C80190A2
:100ADF0003E8013B0002210000142300010203047C
:0F0AEF0005060708090A0908070605040302019E
:100C59005389F0438901D28C758CFC758A18C28D31
:070C6900D2A9D2AFC2B922EB
:03000B0002099354
:10099300C0E0C0F0C083C082C0D075D000C000C02A
:1009A30001C002C003C004C005C006C007758CFCAB
:1009B300758A1874232522F8E675F014A4FF120B28
:1009C300310522E52270020521641445217004F5E6
:1009D30021F522D007D006D005D004D003D002D011
:0E09E30001D000D0D0D082D083D0F0D0E0324E
:10000E00020356E86480F8E933E83360110460F0C7
:10001E00ED33EC337009E8FCE9FDEAFEEBFF220458
:10002E0060DED3EB9FEA9EE99DE8C2E78CF0C2F753
:10003E0095F0400CE8CCF8E9CDF9EACEFAEBCFFB1F
:10004E0012032185D0F05804700320D5B3E8047054
:10005E00075002B2D502036092D5EC0460F7E4CCEF
:10006E00C0E0C398F8603B94186008400DD0E0FBE8
:10007E00020338E4FBFAC9FC8028E830E406E4C940
:10008E00FBE4CAFCE830E305E4C9CACBFCE854073C
:10009E006010F8C3E913F9EA13FAEB13FBEC13FC47
:1000AE00D8F130F52FC3E49CFCEF9BFFEE9AFEEDEA
:1000BE0099FDD0E0FBEF4E4D4C701222DB03020394
:1000CE005DEC2CFCEF33FFEE33FEED33FDED30E750
:1000DE00EB020338EF2BFFEE3AFEED39FDD0E0FBDD
:1000EE0050130BBB0003020360ED13FDEE13FEEF86
:0800FE0013FFEC13FC020338B0
:10010600EC4D6011E8497017ED33EC3304600DE4F3
:10011600FCFFFEFD22E933E8330470F802035612B1
:10012600032158046009E4CC2481500628500902B2
:10013600036028400302035DC0E0EB4A7044B980C7
:1001460006D0E0FB02034CEF4E701CBD8008EBFFAF
:10015600EAFEE9FD80EBE98DF0A4FEE5F00201EF91
:10016600E9CDF9EAFEEBFFEF89F0A4FCE5F0CE89D4
:10017600F0A42EFFE435F0CD89F0A42DFEE435F091
:100186008067EF4E7005BD80D780C3EF8BF0A4ACBF
:10019600F0EE8BF0A42CFCE435F0F8EF8AF0A42CFA
:1001A600E5F038FCE433CB8DF0A42CFCE5F03BF80D
:1001B600EE8AF0A42CFCE5F038F8E433CF89F0A4FD
:1001C6002CFCE5F038CF3400CE89F0A42FFFE5F003
:1001D6003EFEE433C98DF0A42EFEE5F039CD8AF05B
:1001E600A42FFFE5F03EFEE43DFD33D0E0FB5007D3
:1001F6000BBB000F020360EC2CFCEF33FFEE33FE6B
:06020600ED33FD02033898
:10020C00020360EC5D046005E859047003020356B8
:10021C00120321580460F6EC4860F2EC7004FDFE09
:10022C00FF22C860DB2481C85009C39860025006C5
:10023C0002035D9850CAF582E9294B4A7005AB82DE
:10024C0002034C75F0007C1A7880C3EF9BEE9AED9C
:10025C0099400DC3EF9BFFEE9AFEED99FDE842F03D
:10026C00DC23ACF0D0E0FFD0E0FED0E0FDAB822090
:10027C00E7101BEB60BAEC2CFCEF33FFEE33FEED1A
:10028C0033FD020338E803F830E705C0F075F000E1
:10029C00EF2FFFEE33FEED33FD40B830E7C280AAFE
:1002AC0075F020800E75F010800575F0087D007ECD
:1002BC00007F003392D530D50312046EEC3340101E
:1002CC00EF33FFEE33FEED33FDEC33FCD5F0ED22D6
:0E02DC00E5F0247EA2D513CC92E7CDCEFF2212
:1002EA00EDD2E7CD33EC3392D524814006E4FFFE0C
:1002FA00FDFC22FCE4CFCECDCC24E0501174FF806B
:10030A00EDC3CC13CCCD13CDCE13CECF13CF047007
:07031A00F030D5DE02046E95
:10085D0002035622EDA2E7D2E7F9EC3340F260F342
:10086D00B4FF08ED547F70E8020360F82481C2E004
:10087D00C0E0F40428FAC313FCED92E7FD8C128D51
:10088D00138E148F15EEA2E7E9BA7F02C31334005D
:10089D009400FA75F091A4E5F013F494FE8AF0A497
:1008AD0033E5F033248CD313FDE492E7FE7F007C17
:1008BD003F758302ECC0E0F8EDC0E0F9EEC0E0FA60
:1008CD00EFC0E0FBAC12AD13AE14AF1512020FD09A
:1008DD00E0FBD0E0FAD0E0F9D0E0F8120015ED64BD
:1008ED0080FD30E7011CD583CBED33CC33F8D0E060
:0A08FD00A2E71328C313CC13FD2259
:100A3E00ECC0E0F8EDC0E0F9EEC0E0FAEFC0E0FB8C
:100A4E00120106EC6480FC7B007A007980783F12FC
:100A5E000015120861D0E0FBD0E0FAD0E0F9D0E04A
:100A6E00F8C0E012020F120681D0E030E70B78409A
:0A0A7E0079497A0F7BD91200152286
:10032100E9D2E7C933E833F892D5EDD2E7CD33EC22
:0703310033FC5002B2D5229B
:10033800EC30E7100FBF000C0EBE00080DBD000426
:100348000BEB6014A2D5EB13FCED92E7FD2274FFD2
:10035800FCFDFEFF22E480F8A2D574FF13FC7D802B
:03036800E480EF3F
:10066100BE1249253E4CCCCDBEAAAAAB3F800000AC
:100671003E7ADBB03EED63383F24BC7D3F490FDB62
:10068100ED33ECC2E7CC339202B4FF13ED547F603B
:10069100030203567FDB7E0F7DC97C3F02077CC2CC
:1006A10003C3947F401E7007EDD2E794904015EF8D
:1006B100FBEEFAEDF9ECF87F007E007D807C3F12C5
:1006C100020FD203ED33EC33248430E705E4C0E0BC
:1006D100806D04FAEDD2E754F0C333DAFD540734E8
:1006E100002323C0E0CCC0E0F8EDC0E0F9EEC0E0AB
:1006F100FAEFC0E0FBE41202B6EC24FEFC8C128D92
:10070100138E148F151201067B007A007980783FD1
:10071100120015ECC512B2E7FCEDC513FDEEC514D0
:10072100FEEFC515FFD0E0FBD0E0FAD0E0F9D0E054
:10073100F8120015A812A913AA14AB1512020F8CF6
:10074100128D138E148F15900661740312036BA81A
:1007510012A913AA14AB15120106D0E0600F246D83
:10076100F582E43406F58312048C12001530030B74
:100771007BDB7A0F79C978BF120015ED33EC33605A
:0807810006ECA20292E7FC2243
:10036B00C0E0EFFBEEFAEDF9ECF8120106D0E0F588
:10037B00F0EFFBEEFAEDF9ECF812047CA3A3A3A3C8
:10038B00E8C0E0E9C0E0EAC0E0EBC0E0C0F0120179
:10039B000612048CA3A3A3A3120015D0F0D0E0FB8C
:0D03AB00D0E0FAD0E0F9D0E0F8D5F0D4228F
:03000000020907EB
:0C090700787FE4F6D8FD75814B02094EA4
:1003B800BB010689828A83E0225002E722BBFE0243
:0903C800E32289828A83E4932276
:1003D100BB010689828A83F0225002F722BBFE010B
:0203E100F32205
:1003E300BC000BBE0029EF8DF084FFADF022E4CCFE
:1003F300F875F008EF2FFFEE33FEEC33FCEE9DECC7
:10040300984005FCEE9DFE0FD5F0E9E4CEFD22ED0C
:10041300F8F5F0EE8420D21CFEADF075F008EF2F56
:10042300FFED33FD4007985006D5F0F222C398FD47
:050433000FD5F0EA22E4
:10043800C2D5EC30E709B2D5E4C39DFDE49CFCEEDF
:1004480030E715B2D5E4C39FFFE49EFE1203E3C371
:10045800E49DFDE49CFC80031203E330D507C3E46C
:060468009FFFE49EFE224E
:0E046E00C3E49FFFE49EFEE49DFDE49CFC229F
:10047C00E493FC740193FD740293FE740393FF22C6
:10048C00E493F8740193F9740293FA740393FB22C6
:1009130002049CE493A3F8E493A34003F68001F25A
:1009230008DFF48029E493A3F85407240CC8C333E5
:10093300C4540F4420C8834004F456800146F6DFB4
:10094300E4800B0102040810204080900AC9E47E71
:10095300019360BCA3FF543F30E509541FFEE493A9
:10096300A360010ECF54C025E060A840B8E493A370
:10097300FAE493A3F8E493A3C8C582C8CAC583CA9B
:10098300F0A3C8C582C8CAC583CADFE9DEE780BE53
:010AFE0000F7
:00000001FF
