:10038A00E4FDFCC3ED9FEC9E5015E4FBFA0BBB00A9
:0F039A00010ABA01F8BB4DF50DBD00010C80E45E
:0103A9002231
:0403AA008E218F22EF
:1003AE00900000C3E5829522E5839521500A7FE8EF
:0803BE007E0312038AA380EB09
:0103C6002214
:0B000E00D288C289D2A8D2AFD2B8229B
:03000300020218DE
:10021800C0E0C0F0C083C082C0D075D000C000C0AC
:1002280001C002C003C004C005C006C007E5100431
:100238005403F510750E00750F007F07120262D087
:1002480007D006D005D004D003D002D001D000D00A
:0A025800D0D082D083D0F0D0E03285
:0A0319000819FEFDFBF7EFDFBF7FC0
:10026200EFB40800503690026FF828287302028714
:1002720002028A02028D0202900202930202960296
:10028200029902029CB28022B28122B28222B283FD
:0D02920022B28422B28522B28622B28722D7
:10029F00EFB4080050369002ACF82828730202C45D
:1002AF000202C70202CA0202CD0202D00202D30228
:1002BF0002D60202D9C28022C28122C28222C28306
:0D02CF0022C28422C28522C28622C287225A
:1002DC00EFB4080050369002E9F8282873020301A5
:1002EC0002030402030702030A02030D02031002B5
:1002FC000313020316D28022D28122D28222D2830D
:0D030C0022D28422D28522D28622D28722DC
:1001BF00C2807F647E0012038AD280C2817F647EF8
:1001CF000012038AD281C2827F647E0012038AD218
:1001DF0082C2837F647E0012038AD283C2847F64CB
:1001EF007E0012038AD284C2857F647E0012038A46
:1001FF00D285C2867F647E0012038AD286C2877F31
:09020F00647E0012038AD28722EA
:10036800E4F527C3E5279408748094805013741922
:100378002527F8E6F5807F647E0012038A0527802A
:01038800E292
:010389002251
:100341007525FEE4F526C3E5269408748094805053
:1003510015852580E52525E004F5257F647E0012BD
:06036100038A052680E07E
:010367002273
:0B03EF001203C71203DB12000E80FE99
:1003230002080000020A0000020C0000020E000096
:0D0333000811006400C8019003E8011000EB
:1003C7005389F0D28C758CE0758A18C28DD2A9D268
:0403D700AFC2B922D6
:1003DB0053890FD28E758DE0758B18C28FD2ABD22D
:0403EB00AFC2BB22C0
:03000B00020143AC
:10014300C0E0C0F0C083C082C0D075D000C000C082
:1001530001C002C003C004C005C006C007758CE01F
:10016300758A180509E50970020508640A450870CF
:1001730008F508F509FF120262050BE50B7002058D
:100183000AB4E810E50AB4030B750A00750B007F87
:100193000112029FE50B6464450A70057F01120298
:1001A300DCD007D006D005D004D003D002D001D0D4
:0C01B30000D0D0D082D083D0F0D0E03259
:03001B0002001EC2
:10001E00C0E0C0F0C083C082C0D075D000C000C0A8
:10002E0001C002C003C004C005C006C007758DE044
:10003E00758B18050DE50D7002050CB4E810E50C76
:10004E00B4030B750C00750D007F0312029FE50DB6
:10005E006464450C70057F031202DC050FE50F701A
:10006E0002050EE51025E02411F8E6FE08E6B50FB0
:10007E0010E50EB5060B750E00750F007F0412020B
:10008E009FE50F6464450E70057F041202DCD007F5
:10009E00D006D005D004D003D002D001D000D0D0ED
:0900AE00D082D083D0F0D0E03202
:030000000200B744
:0C00B700787FE4F6D8FD7581270200FE7A
:1000C3000203EFE493A3F8E493A34003F68001F261
:1000D30008DFF48029E493A3F85407240CC8C3333E
:1000E300C4540F4420C8834004F456800146F6DF0D
:1000F300E4800B0102040810204080900319E47E81
:10010300019360BCA3FF543F30E509541FFEE49301
:10011300A360010ECF54C025E060A840B8E493A3C8
:10012300FAE493A3F8E493A3C8C582C8CAC583CAF3
:10013300F0A3C8C582C8CAC583CADFE9DEE780BEAB
:0103400000BC
:00000001FF
