:1002D500E4FDFCC3ED9FEC9E5015E4FBFA0BBB005F
:0F02E500010ABA01F8BB4DF50DBD00010C80E414
:0102F40022E7
:040315008E1D8F1E8C
:10031900900000C3E582951EE583951D500A7FE88C
:080329007E031202D5A380EB54
:0103310022A9
:0B034900D288C289D2A8D2AFD2B8225D
:0300030002018B6C
:10018B00C0E0C0F0C083C082C0D075D000C000C03A
:10019B0001C002C003C004C005C006C007E50C04C3
:1001AB005403F50C750A00750B007F071201D5D0AF
:1001BB0007D006D005D004D003D002D001D000D098
:0A01CB00D0D082D083D0F0D0E03213
:0A02F5000815FEFDFBF7EFDFBF7FE9
:1001D500EFB4080050369001E2F82828730201FABE
:1001E5000201FD02020002020302020602020902E6
:1001F500020C02020FB28022B28122B28222B283A5
:0D02050022B28422B28522B28622B2872264
:10021200EFB40800503690021FF828287302023704
:1002220002023A02023D0202400202430202460276
:10023200024902024CC28022C28122C28222C283AD
:0D02420022C28422C28522C28622C28722E7
:10024F00EFB40800503690025CF82828730202744D
:10025F0002027702027A02027D0202800202830208
:10026F000286020289D28022D28122D28222D283B6
:0D027F0022D28422D28522D28622D287226A
:10013200C2807F647E001202D5D280C2817F647E3B
:10014200001202D5D281C2827F647E001202D5D211
:1001520082C2837F647E001202D5D283C2847F640E
:100162007E001202D5D284C2857F647E001202D53F
:10017200D285C2867F647E001202D5D286C2877F74
:09018200647E001202D5D287222E
:1002B300E4F523C3E52394087480948050137415E4
:1002C3002523F8E6F5807F647E001202D50523809E
:0102D300E248
:0102D4002207
:10028C007521FEE4F522C3E5229408748094805015
:10029C0015852180E52125E004F5217F647E00127F
:0602AC0002D5052280E0EE
:0102B2002229
:0803540012033212034980FE7E
:1002FF0002080000020A0000080D006400C8019007
:05030F0003E8010C00F1
:100332005389F0438901D28C758CFC758A18C28D61
:07034200D2A9D2AFC2B9221B
:03000B0002000EE2
:10000E00C0E0C0F0C083C082C0D075D000C000C0B8
:10001E0001C002C003C004C005C006C007758CFC39
:10002E00758A180509E50970020508B4E810E50897
:10003E00B4030B750800750900E4FF120212E509FE
:10004E00646445087004FF12024F050BE50B700245
:10005E00050AE50C25E0240DF8E6FE08E6B50B10C2
:10006E00E50AB5060B750A00750B007F0112021228
:10007E00E50B6464450A70057F0112024FD007D06C
:10008E0006D005D004D003D002D001D000D0D0D0FD
:08009E0082D083D0F0D0E032E3
:030000000200A655
:0C00A600787FE4F6D8FD7581230200EDA0
:1000B200020354E493A3F8E493A34003F68001F20D
:1000C20008DFF48029E493A3F85407240CC8C3334F
:1000D200C4540F4420C8834004F456800146F6DF1E
:1000E200E4800B01020408102040809002F5E47EB7
:1000F200019360BCA3FF543F30E509541FFEE49313
:10010200A360010ECF54C025E060A840B8E493A3D9
:10011200FAE493A3F8E493A3C8C582C8CAC583CA04
:10012200F0A3C8C582C8CAC583CADFE9DEE780BEBC
:0103140000E8
:00000001FF
