:1001640041624364403132332E636F6D00613D312F
:070174003020623D32300033
:1000710075080075090A750A00750B1412017B7B5E
:10008100FF7A017964E4FDFF1200F47BFF7A0179C4
:1000910071E4FD7F011200F420B0FD7F0A7E0012A1
:1000A100000020B0F37B637A007D0C7F011200B366
:0200B10080E6E7
:10014700E4FFFEE4FDFC0DBD00010CED64154C70F1
:0C015700F50FBF00010EEF640B4E70E7C7
:010163002279
:10018F008F80C295C296C297120147D2970201473C
:10019F008F80D295C296C297120147D2970201471C
:10017B007F3812018F7F0112018F7F0612018F7F53
:04018B000C02018FD2
:02012600AE0722
:10012800EEF58275830070027A80E582640145836A
:0F01380070027AC0ED2AFF12018FAF0302019F00
:1000F400EFF5827583007003750C80E58264014519
:10010400837003750CC0ED250CF50CFF12018F12E2
:100114000003FF600C12019F740129F9E43AFA808C
:01012400EEEC
:0101250022B7
:1000B3008F0C8D0D8A0E8B0FAE0EAF0F7C007D0A59
:1000C30012001C7C007D0A12001CED2430FBAD0DD8
:1000D300AF0C120126E50D04FDC005AE0EAF0F7C7B
:1000E300007D0A12001CED2430FBD005AF0C020189
:0100F30026E6
:030000000201AF4B
:0C01AF00787FE4F6D8FD75810F02007126
:10000300BB010689828A83E0225002E722BBFE02FB
:09001300E32289828A83E493222E
:10001C00BC000BBE0029EF8DF084FFADF022E4CCC8
:10002C00F875F008EF2FFFEE33FEEC33FCEE9DEC91
:10003C00984005FCEE9DFE0FD5F0E9E4CEFD22EDD7
:10004C00F8F5F0EE8420D21CFEADF075F008EF2F21
:10005C00FFED33FD4007985006D5F0F222C398FD12
:05006C000FD5F0EA22AF
:00000001FF
