:0302C9000127000A
:10024800E4F516F5171202DFAF277E00EF7006F50A
:1002580016F517800EEF64014E70080517E5177044
:0C026800020516AF17AE161201DD80DC97
:10027400E4FDFCC3ED9FEC9E5015E4FBFA0BBB00C0
:0F028400010ABA01F8BB4DF50DBD00010C80E475
:010293002248
:040294008E238F2402
:10029800900000C3E5829524E5839523500A7FE802
:0802A8007E03120274A380EB37
:0102B000222B
:0802EA0003E80064000A0001B2
:1002CC000A08C0F9A4B0999282F880900412FEFD3D
:0202DC00FBF72E
:0401DD008E188F19D0
:1001E100781B7C007D007BFF7A0279EA7E007F0824
:1001F1001200D6E4F51AE51AFB7A00C39404748060
:1002010094805042E51A25E0241BF8E6FC08E6FD3F
:10021100AE18AF191200FC7C007D0A1200FC7408B4
:100221002DF8E6F5907412251AF8E6F5A0EB6401B5
:10023100700353907F7F057E001202747590FF75E5
:06024100A0FF051A80B0C9
:010247002294
:0B02DF00D288C289D2A8D2AFC2B822D8
:030003000202B145
:1002B100C0E0C0F0C0D00527E52775F0038485F0C4
:0802C10027D0D0D0F0D0E032CC
:03000000020151A9
:0C015100787FE4F6D8FD75812702019844
:10000600E709F608DFFA8046E709F208DFFA803EDC
:1000160088828C83E709F0A3DFFA8032E309F608C9
:10002600DFFA8078E309F208DFFA807088828C8331
:10003600E309F0A3DFFA806489828A83E0A3F608E5
:10004600DFFA805889828A83E0A3F208DFFA804CBF
:1000560080D280FA80C680D4806980F28033801096
:1000660080A680EA809A80A880DA80E280CA8033FF
:1000760089828A83ECFAE493A3C8C582C8CCC58377
:10008600CCF0A3C8C582C8CCC583CCDFE9DEE78047
:100096000D89828A83E493A3F608DFF9ECFAA9F0C6
:1000A600EDFB2289828A83ECFAE0A3C8C582C8CC1C
:1000B600C583CCF0A3C8C582C8CCC583CCDFEADE35
:1000C600E880DB89828A83E493A3F208DFF980CC97
:1000D60088F0EF60010E4E60C388F0ED2402B40490
:1000E6000050B9F582EB2402B4040050AF23234537
:0600F60082239000567306
:1000FC00BC000BBE0029EF8DF084FFADF022E4CCE8
:10010C00F875F008EF2FFFEE33FEEC33FCEE9DECB0
:10011C00984005FCEE9DFE0FD5F0E9E4CEFD22EDF6
:10012C00F8F5F0EE8420D21CFEADF075F008EF2F40
:10013C00FFED33FD4007985006D5F0F222C398FD31
:05014C000FD5F0EA22CE
:10015D00020248E493A3F8E493A34003F68001F26E
:10016D0008DFF48029E493A3F85407240CC8C333A3
:10017D00C4540F4420C8834004F456800146F6DF72
:10018D00E4800B01020408102040809002C9E47E37
:10019D00019360BCA3FF543F30E509541FFEE49367
:1001AD00A360010ECF54C025E060A840B8E493A32E
:1001BD00FAE493A3F8E493A3C8C582C8CAC583CA59
:1001CD00F0A3C8C582C8CAC583CADFE9DEE780BE11
:0102DE00001F
:00000001FF
