:0802DE0003E80064000A0001BE
:1002CB000A25C0F9A4B0999282F880900421FEFD12
:0202DB00FBF72F
:1002A800E4FDFCEFFBC3ED9BEC94005015E4FBFA76
:1002B8000BBB00010ABA01F8BB4DF50DBD00010CDE
:0202C80080E1D3
:0102CA002211
:04024A008E0C8F0D7A
:10024E00780F7C007D007BFF7A0279DE7E007F08CE
:10025E001200D3E4F50EC3E50E940474809480501E
:10026E0038E50E25E0240FF8E6FC08E6FDAE0CAFEF
:10027E000D1200F97C007D0A1200F974252DF8E6A6
:10028E00F5907421250EF8E6F5A07F141202A875DC
:09029E0090FF75A0FF050E80BD64
:0102A7002234
:1001DA00E4F508F509F50AF50BD20020B0137F0AF9
:1001EA001202A820B00B30B0FD7508047509D2C2FE
:1001FA000020B1137F0A1202A820B10B30B1FD759D
:10020A0008117509D7C20020B20D7F0A1202A82070
:10021A00B20530B2FDD20030001D050BE50B850A90
:10022A00087002050A14F509E50BB4100AE50AB4C8
:10023A002705E4F50AF50BAF09AE0812024A809BBE
:0300000002014EAC
:0C014E00787FE4F6D8FD75812E02019543
:10000300E709F608DFFA8046E709F208DFFA803EDF
:1000130088828C83E709F0A3DFFA8032E309F608CC
:10002300DFFA8078E309F208DFFA807088828C8334
:10003300E309F0A3DFFA806489828A83E0A3F608E8
:10004300DFFA805889828A83E0A3F208DFFA804CC2
:1000530080D280FA80C680D4806980F28033801099
:1000630080A680EA809A80A880DA80E280CA803302
:1000730089828A83ECFAE493A3C8C582C8CCC5837A
:10008300CCF0A3C8C582C8CCC583CCDFE9DEE7804A
:100093000D89828A83E493A3F608DFF9ECFAA9F0C9
:1000A300EDFB2289828A83ECFAE0A3C8C582C8CC1F
:1000B300C583CCF0A3C8C582C8CCC583CCDFEADE38
:1000C300E880DB89828A83E493A3F208DFF980CC9A
:1000D30088F0EF60010E4E60C388F0ED2402B40493
:1000E3000050B9F582EB2402B4040050AF2323453A
:0600F3008223900053730C
:1000F900BC000BBE0029EF8DF084FFADF022E4CCEB
:10010900F875F008EF2FFFEE33FEEC33FCEE9DECB3
:10011900984005FCEE9DFE0FD5F0E9E4CEFD22EDF9
:10012900F8F5F0EE8420D21CFEADF075F008EF2F43
:10013900FFED33FD4007985006D5F0F222C398FD34
:050149000FD5F0EA22D1
:10015A000201DAE493A3F8E493A34003F68001F2E0
:10016A0008DFF48029E493A3F85407240CC8C333A6
:10017A00C4540F4420C8834004F456800146F6DF75
:10018A00E4800B01020408102040809002CBE47E38
:10019A00019360BCA3FF543F30E509541FFEE4936A
:1001AA00A360010ECF54C025E060A840B8E493A331
:1001BA00FAE493A3F8E493A3C8C582C8CAC583CA5C
:1001CA00F0A3C8C582C8CAC583CADFE9DEE780BE14
:0102DD000020
:00000001FF
