:03000000020003F8
:0C000300787FE4F6D8FD75811002004AF9
:0A012B000808FEFDFBF7EFDFBF7FC1
:1000CA00E4FDFCEFFBC3ED9BEC94005015E4FBFA56
:1000DA000BBB00010ABA01F8BB4DF50DBD00010CBE
:0200EA0080E1B3
:0100EC0022F1
:10008F00C2907F641200CAD290C2911200CAD2915C
:10009F00C2921200CAD292C2931200CAD293C294D1
:1000AF001200CAD294C2951200CAD295C2961200FB
:0B00BF00CAD296C2971200CAD2972244
:10010F00E4F9E9C3940874809480500F740829F8B7
:0B011F00E6F5907F641200CA0980E73B
:01012A0022B2
:1000ED007510FEE4F9E9C39408748094805012856C
:1000FD001090E51025E004F5107F641200CA098008
:01010D00E40D
:01010E0022CE
:050136001200ED80FB4A
:10000F00020136E493A3F8E493A34003F68001F2D0
:10001F0008DFF48029E493A3F85407240CC8C333F2
:10002F00C4540F4420C8834004F456800146F6DFC1
:10003F00E4800B010204081020408090012BE47E25
:10004F00019360BCA3FF543F30E509541FFEE493B6
:10005F00A360010ECF54C025E060A840B8E493A37D
:10006F00FAE493A3F8E493A3C8C582C8CAC583CAA8
:10007F00F0A3C8C582C8CAC583CADFE9DEE780BE60
:0101350000C9
:00000001FF
