:10000300E4FDFCC3ED9FEC9E5015E4FBFA0BBB0033
:0F001300010ABA01F8BB4DF50DBD00010C80E4E8
:0100220022BB
:040257008E138F145F
:10025B00900000C3E5829514E5839513500A7FE85F
:08026B007E03120003A380EBE7
:010273002268
:0802C7003132333435363700C3
:1002A9001202747F301202CF7BFF7A0279C71202E1
:0302B9001080FEB4
:10027400759850D2AC53890F438920D28E758BFD6B
:0C028400758DFDC28FD2ABD2AFD2BB2271
:0802CF008F993099FDC29922BC
:100210008B108A118912AB10AA11A91212029060D8
:10022000130512E5127002051114F9120290FF1263
:0502300002CF80E22274
:030023000201C215
:1001C200C0D075D000C0077F781202CFC2ACC298EF
:1001D200859916851680D2ACC2988516993099FDFC
:0701E200C299D007D0D03212
:0A02BC000808FEFDFBF7EFDFBF7F2F
:10010B00EFB408005036900118F82828730201301C
:10011B0002013302013602013902013C02013F02A6
:10012B000142020145B28022B28122B28222B28305
:0D013B0022B28422B28522B28622B287222F
:10014800EFB408005036900155F828287302016D65
:1001580002017002017302017602017902017C0238
:10016800017F020182C28022C28122C28222C2830E
:0D01780022C28422C28522C28622C28722B2
:10018500EFB408005036900192F82828730201AAAE
:100195000201AD0201B00201B30201B60201B902CA
:1001A50001BC0201BFD28022D28122D28222D28317
:0D01B50022D28422D28522D28622D2872235
:1000B200C2807F647E00120003D280C2817F647E90
:1000C20000120003D281C2827F647E00120003D23A
:1000D20082C2837F647E00120003D283C2847F6463
:1000E2007E00120003D284C2857F647E0012000368
:1000F200D285C2867F647E00120003D286C2877FC9
:09010200647E00120003D2872282
:10023500E4F519C3E5199408748094805013740883
:100245002519F8E6F5807F647E0012000305198004
:01025500E2C6
:010256002285
:1001E9007517FEE4F518C3E51894087480948050D7
:1001F90015851780E51725E004F5177F647E001241
:060209000003051880E06F
:01020F0022CC
:03000000020026D5
:0C002600787FE4F6D8FD75811902006DAA
:10029000BB010689828A83E0225002E722BBFE026C
:0902A000E32289828A83E493229F
:100032000202A9E493A3F8E493A34003F68001F239
:1000420008DFF48029E493A3F85407240CC8C333CF
:10005200C4540F4420C8834004F456800146F6DF9E
:10006200E4800B01020408102040809002BCE47E70
:10007200019360BCA3FF543F30E509541FFEE49393
:10008200A360010ECF54C025E060A840B8E493A35A
:10009200FAE493A3F8E493A3C8C582C8CAC583CA85
:1000A200F0A3C8C582C8CAC583CADFE9DEE780BE3D
:0102C6000037
:00000001FF
